{
  "_format": "hh-sol-artifact-1",
  "contractName": "GasComparison",
  "sourceName": "contracts/GasComparison.sol",
  "abi": [
    {
      "inputs": [],
      "name": "a",
      "outputs": [
        {
          "internalType": "uint256",
          "name": "",
          "type": "uint256"
        }
      ],
      "stateMutability": "view",
      "type": "function"
    },
    {
      "inputs": [],
      "name": "b",
      "outputs": [
        {
          "internalType": "uint256",
          "name": "",
          "type": "uint256"
        }
      ],
      "stateMutability": "view",
      "type": "function"
    },
    {
      "inputs": [
        {
          "internalType": "uint256",
          "name": "_n",
          "type": "uint256"
        }
      ],
      "name": "loopOperation",
      "outputs": [
        {
          "internalType": "uint256",
          "name": "",
          "type": "uint256"
        }
      ],
      "stateMutability": "pure",
      "type": "function"
    },
    {
      "inputs": [
        {
          "internalType": "uint256",
          "name": "_a",
          "type": "uint256"
        },
        {
          "internalType": "uint256",
          "name": "_b",
          "type": "uint256"
        }
      ],
      "name": "multipleStorageWrites",
      "outputs": [],
      "stateMutability": "nonpayable",
      "type": "function"
    },
    {
      "inputs": [],
      "name": "storedValue",
      "outputs": [
        {
          "internalType": "uint256",
          "name": "",
          "type": "uint256"
        }
      ],
      "stateMutability": "view",
      "type": "function"
    },
    {
      "inputs": [
        {
          "internalType": "uint256",
          "name": "_val",
          "type": "uint256"
        }
      ],
      "name": "useMemory",
      "outputs": [
        {
          "internalType": "uint256",
          "name": "",
          "type": "uint256"
        }
      ],
      "stateMutability": "pure",
      "type": "function"
    },
    {
      "inputs": [
        {
          "internalType": "uint256",
          "name": "_val",
          "type": "uint256"
        }
      ],
      "name": "useStorage",
      "outputs": [],
      "stateMutability": "nonpayable",
      "type": "function"
    }
  ],
  "bytecode": "0x6080604052348015600f57600080fd5b506103538061001f6000396000f3fe608060405234801561001057600080fd5b506004361061007d5760003560e01c80634df7e3d01161005b5780634df7e3d0146100ec5780636d619daa1461010a578063a8b7631b14610128578063c44cbc76146101585761007d565b8063033b5db4146100825780630dbe671f1461009e5780630e3beb7c146100bc575b600080fd5b61009c60048036038101906100979190610223565b610174565b005b6100a6610186565b6040516100b39190610272565b60405180910390f35b6100d660048036038101906100d1919061028d565b61018c565b6040516100e39190610272565b60405180910390f35b6100f46101c3565b6040516101019190610272565b60405180910390f35b6101126101c9565b60405161011f9190610272565b60405180910390f35b610142600480360381019061013d919061028d565b6101cf565b60405161014f9190610272565b60405180910390f35b610172600480360381019061016d919061028d565b6101de565b005b81600181905550806002819055505050565b60015481565b6000806000905060005b838110156101b95780826101aa91906102e9565b91508080600101915050610196565b5080915050919050565b60025481565b60005481565b60008082905080915050919050565b8060008190555050565b600080fd5b6000819050919050565b610200816101ed565b811461020b57600080fd5b50565b60008135905061021d816101f7565b92915050565b6000806040838503121561023a576102396101e8565b5b60006102488582860161020e565b92505060206102598582860161020e565b9150509250929050565b61026c816101ed565b82525050565b60006020820190506102876000830184610263565b92915050565b6000602082840312156102a3576102a26101e8565b5b60006102b18482850161020e565b91505092915050565b7f4e487b7100000000000000000000000000000000000000000000000000000000600052601160045260246000fd5b60006102f4826101ed565b91506102ff836101ed565b9250828201905080821115610317576103166102ba565b5b9291505056fea2646970667358221220466b2ed607449fd8e05dbc3ac183549bf70365ef210673a4e24daece9abb94c564736f6c634300081c0033",
  "linkReferences": {},
  "deployedLinkReferences": {}
}